{
  "abi": [
    {
      "inputs": [
        {
          "internalType": "string",
          "name": "_topic",
          "type": "string"
        },
        {
          "internalType": "uint256",
          "name": "_expiredTime",
          "type": "uint256"
        }
      ],
      "stateMutability": "nonpayable",
      "type": "constructor"
    },
    {
      "anonymous": false,
      "inputs": [
        {
          "indexed": false,
          "internalType": "string",
          "name": "topic",
          "type": "string"
        },
        {
          "indexed": false,
          "internalType": "uint256",
          "name": "expiredTime",
          "type": "uint256"
        }
      ],
      "name": "NewVote",
      "type": "event"
    },
    {
      "anonymous": false,
      "inputs": [
        {
          "indexed": false,
          "internalType": "uint64",
          "name": "total",
          "type": "uint64"
        },
        {
          "indexed": true,
          "internalType": "address",
          "name": "sender",
          "type": "address"
        }
      ],
      "name": "Voted",
      "type": "event"
    },
    {
      "inputs": [
        {
          "internalType": "address",
          "name": "newOwner",
          "type": "address"
        }
      ],
      "name": "changeOwner",
      "outputs": [],
      "stateMutability": "nonpayable",
      "type": "function"
    },
    {
      "inputs": [],
      "name": "end",
      "outputs": [
        {
          "internalType": "bool",
          "name": "",
          "type": "bool"
        }
      ],
      "stateMutability": "view",
      "type": "function"
    },
    {
      "inputs": [],
      "name": "expiredTime",
      "outputs": [
        {
          "internalType": "uint256",
          "name": "",
          "type": "uint256"
        }
      ],
      "stateMutability": "view",
      "type": "function"
    },
    {
      "inputs": [
        {
          "internalType": "string",
          "name": "_topic",
          "type": "string"
        },
        {
          "internalType": "uint256",
          "name": "_expiredTime",
          "type": "uint256"
        }
      ],
      "name": "newVote",
      "outputs": [],
      "stateMutability": "nonpayable",
      "type": "function"
    },
    {
      "inputs": [],
      "name": "owner",
      "outputs": [
        {
          "internalType": "address",
          "name": "",
          "type": "address"
        }
      ],
      "stateMutability": "view",
      "type": "function"
    },
    {
      "inputs": [],
      "name": "topic",
      "outputs": [
        {
          "internalType": "string",
          "name": "",
          "type": "string"
        }
      ],
      "stateMutability": "view",
      "type": "function"
    },
    {
      "inputs": [],
      "name": "total",
      "outputs": [
        {
          "internalType": "uint64",
          "name": "",
          "type": "uint64"
        }
      ],
      "stateMutability": "view",
      "type": "function"
    },
    {
      "inputs": [],
      "name": "vote",
      "outputs": [],
      "stateMutability": "nonpayable",
      "type": "function"
    },
    {
      "inputs": [],
      "name": "voteEnd",
      "outputs": [
        {
          "internalType": "uint64",
          "name": "",
          "type": "uint64"
        }
      ],
      "stateMutability": "nonpayable",
      "type": "function"
    },
    {
      "inputs": [
        {
          "internalType": "uint256",
          "name": "",
          "type": "uint256"
        }
      ],
      "name": "voters",
      "outputs": [
        {
          "internalType": "address",
          "name": "",
          "type": "address"
        }
      ],
      "stateMutability": "view",
      "type": "function"
    }
  ],
  "bytecode": {
    "object": "0x60806040523480156200001157600080fd5b5060405162000bc438038062000bc4833981016040819052620000349162000083565b60018054600160401b600160e01b0319163368010000000000000000021790556000620000628382620001ed565b5060035550620002b9565b634e487b7160e01b600052604160045260246000fd5b600080604083850312156200009757600080fd5b82516001600160401b0380821115620000af57600080fd5b818501915085601f830112620000c457600080fd5b815181811115620000d957620000d96200006d565b604051601f8201601f19908116603f011681019083821181831017156200010457620001046200006d565b816040528281526020935088848487010111156200012157600080fd5b600091505b8282101562000145578482018401518183018501529083019062000126565b6000928101840192909252509401519395939450505050565b600181811c908216806200017357607f821691505b6020821081036200019457634e487b7160e01b600052602260045260246000fd5b50919050565b601f821115620001e857600081815260208120601f850160051c81016020861015620001c35750805b601f850160051c820191505b81811015620001e457828155600101620001cf565b5050505b505050565b81516001600160401b038111156200020957620002096200006d565b62000221816200021a84546200015e565b846200019a565b602080601f831160018114620002595760008415620002405750858301515b600019600386901b1c1916600185901b178555620001e4565b600085815260208120601f198616915b828110156200028a5788860151825594840194600190910190840162000269565b5085821015620002a95787850151600019600388901b60f8161c191681555b5050505050600190811b01905550565b6108fb80620002c96000396000f3fe608060405234801561001057600080fd5b506004361061009e5760003560e01c8063a6f9dae111610066578063a6f9dae11461013b578063bf63a5771461014e578063da58c7d914610163578063ddbe8f0914610176578063efbe1c1c1461017e57600080fd5b80632ddbd13a146100a3578063632a9a52146100d55780637e055491146100df5780638da5cb5b146100f25780638e32e42114610124575b600080fd5b6001546100b79067ffffffffffffffff1681565b60405167ffffffffffffffff90911681526020015b60405180910390f35b6100dd61019b565b005b6100dd6100ed366004610537565b6102a2565b60015461010c90600160401b90046001600160a01b031681565b6040516001600160a01b0390911681526020016100cc565b61012d60035481565b6040519081526020016100cc565b6100dd6101493660046105ec565b610370565b6101566103d2565b6040516100cc919061061c565b61010c61017136600461066a565b610460565b6100b761048a565b60045461018b9060ff1681565b60405190151581526020016100cc565b60035442106101e65760405162461bcd60e51b81526020600482015260126024820152712a3432903a37b834b19032bc3834b932b21760711b60448201526064015b60405180910390fd5b600280546001818101835560009283527f405787fa12a823e0f2b7631cc41b3ba8828b3321ca811111fa75cd3aa3bb5ace90910180546001600160a01b0319163317905580549091829161024590839067ffffffffffffffff16610683565b82546101009290920a67ffffffffffffffff818102199093169183160217909155600154604051911681523391507f2c5f4860e991e7e25474abd971458311932390ea712e88f8edda363e1ae311469060200160405180910390a2565b600154600160401b90046001600160a01b031633146102d35760405162461bcd60e51b81526004016101dd906106b9565b60045460ff16151560011461031f5760405162461bcd60e51b81526020600482015260126024820152712b37ba34b7339034b9903737ba1032b7321760711b60448201526064016101dd565b600061032b8382610771565b5060038190556040517f4c532e2c467f08ba2b82492bf0931d516b87344d940852a64a492a5e170973b590610364906000908490610831565b60405180910390a15050565b600154600160401b90046001600160a01b031633146103a15760405162461bcd60e51b81526004016101dd906106b9565b600180546001600160a01b03909216600160401b0268010000000000000000600160e01b0319909216919091179055565b600080546103df906106e8565b80601f016020809104026020016040519081016040528092919081815260200182805461040b906106e8565b80156104585780601f1061042d57610100808354040283529160200191610458565b820191906000526020600020905b81548152906001019060200180831161043b57829003601f168201915b505050505081565b6002818154811061047057600080fd5b6000918252602090912001546001600160a01b0316905081565b600154600090600160401b90046001600160a01b031633146104be5760405162461bcd60e51b81526004016101dd906106b9565b60045460ff16156105025760405162461bcd60e51b815260206004820152600e60248201526d2b37ba34b7339034b99032b7321760911b60448201526064016101dd565b506004805460ff191660019081179091555467ffffffffffffffff1690565b634e487b7160e01b600052604160045260246000fd5b6000806040838503121561054a57600080fd5b823567ffffffffffffffff8082111561056257600080fd5b818501915085601f83011261057657600080fd5b81358181111561058857610588610521565b604051601f8201601f19908116603f011681019083821181831017156105b0576105b0610521565b816040528281528860208487010111156105c957600080fd5b826020860160208301376000602093820184015298969091013596505050505050565b6000602082840312156105fe57600080fd5b81356001600160a01b038116811461061557600080fd5b9392505050565b600060208083528351808285015260005b818110156106495785810183015185820160400152820161062d565b506000604082860101526040601f19601f8301168501019250505092915050565b60006020828403121561067c57600080fd5b5035919050565b67ffffffffffffffff8181168382160190808211156106b257634e487b7160e01b600052601160045260246000fd5b5092915050565b6020808252601590820152742cb7ba9030b932903737ba103a34329037bbb732b960591b604082015260600190565b600181811c908216806106fc57607f821691505b60208210810361071c57634e487b7160e01b600052602260045260246000fd5b50919050565b601f82111561076c57600081815260208120601f850160051c810160208610156107495750805b601f850160051c820191505b8181101561076857828155600101610755565b5050505b505050565b815167ffffffffffffffff81111561078b5761078b610521565b61079f8161079984546106e8565b84610722565b602080601f8311600181146107d457600084156107bc5750858301515b600019600386901b1c1916600185901b178555610768565b600085815260208120601f198616915b82811015610803578886015182559484019460019091019084016107e4565b50858210156108215787850151600019600388901b60f8161c191681555b5050505050600190811b01905550565b604081526000808454610843816106e8565b8060408601526060600180841660008114610865576001811461087f576108b0565b60ff1985168884015283151560051b8801830195506108b0565b8960005260208060002060005b868110156108a75781548b820187015290840190820161088c565b8a018501975050505b5050505050602092909201929092529291505056fea2646970667358221220a4f9620ad1a73f2dceb631d8b42a4be0047b9f19733dba4b0ecdaecb9f31294c64736f6c63430008100033",
    "linkReferences": {}
  },
  "methodIdentifiers": {
    "changeOwner(address)": "a6f9dae1",
    "end()": "efbe1c1c",
    "expiredTime()": "8e32e421",
    "newVote(string,uint256)": "7e055491",
    "owner()": "8da5cb5b",
    "topic()": "bf63a577",
    "total()": "2ddbd13a",
    "vote()": "632a9a52",
    "voteEnd()": "ddbe8f09",
    "voters(uint256)": "da58c7d9"
  },
  "id": 0
}